{
  "_format": "hh-sol-artifact-1",
  "contractName": "CommunityNft",
  "sourceName": "contracts/CommunityNft_PseudoR.sol",
  "abi": [
    {
      "inputs": [
        {
          "internalType": "string",
          "name": "name",
          "type": "string"
        },
        {
          "internalType": "string",
          "name": "symbol",
          "type": "string"
        },
        {
          "internalType": "string",
          "name": "initialURI",
          "type": "string"
        }
      ],
      "stateMutability": "nonpayable",
      "type": "constructor"
    },
    {
      "anonymous": false,
      "inputs": [
        {
          "indexed": true,
          "internalType": "address",
          "name": "owner",
          "type": "address"
        },
        {
          "indexed": true,
          "internalType": "address",
          "name": "approved",
          "type": "address"
        },
        {
          "indexed": true,
          "internalType": "uint256",
          "name": "tokenId",
          "type": "uint256"
        }
      ],
      "name": "Approval",
      "type": "event"
    },
    {
      "anonymous": false,
      "inputs": [
        {
          "indexed": true,
          "internalType": "address",
          "name": "owner",
          "type": "address"
        },
        {
          "indexed": true,
          "internalType": "address",
          "name": "operator",
          "type": "address"
        },
        {
          "indexed": false,
          "internalType": "bool",
          "name": "approved",
          "type": "bool"
        }
      ],
      "name": "ApprovalForAll",
      "type": "event"
    },
    {
      "anonymous": false,
      "inputs": [
        {
          "indexed": true,
          "internalType": "address",
          "name": "previousOwner",
          "type": "address"
        },
        {
          "indexed": true,
          "internalType": "address",
          "name": "newOwner",
          "type": "address"
        }
      ],
      "name": "OwnershipTransferred",
      "type": "event"
    },
    {
      "anonymous": false,
      "inputs": [
        {
          "indexed": true,
          "internalType": "address",
          "name": "from",
          "type": "address"
        },
        {
          "indexed": true,
          "internalType": "address",
          "name": "to",
          "type": "address"
        },
        {
          "indexed": true,
          "internalType": "uint256",
          "name": "tokenId",
          "type": "uint256"
        }
      ],
      "name": "Transfer",
      "type": "event"
    },
    {
      "inputs": [],
      "name": "MAX_PLANKTON_SUPPLY",
      "outputs": [
        {
          "internalType": "uint256",
          "name": "",
          "type": "uint256"
        }
      ],
      "stateMutability": "view",
      "type": "function"
    },
    {
      "inputs": [],
      "name": "MAX_SEAL_SUPPLY",
      "outputs": [
        {
          "internalType": "uint256",
          "name": "",
          "type": "uint256"
        }
      ],
      "stateMutability": "view",
      "type": "function"
    },
    {
      "inputs": [],
      "name": "MAX_WHALE_SUPPLY",
      "outputs": [
        {
          "internalType": "uint256",
          "name": "",
          "type": "uint256"
        }
      ],
      "stateMutability": "view",
      "type": "function"
    },
    {
      "inputs": [],
      "name": "PRICE_PER_PLANKTON_TOKEN",
      "outputs": [
        {
          "internalType": "uint256",
          "name": "",
          "type": "uint256"
        }
      ],
      "stateMutability": "view",
      "type": "function"
    },
    {
      "inputs": [],
      "name": "PRICE_PER_SEAL_TOKEN",
      "outputs": [
        {
          "internalType": "uint256",
          "name": "",
          "type": "uint256"
        }
      ],
      "stateMutability": "view",
      "type": "function"
    },
    {
      "inputs": [],
      "name": "PRICE_PER_WHALE_TOKEN",
      "outputs": [
        {
          "internalType": "uint256",
          "name": "",
          "type": "uint256"
        }
      ],
      "stateMutability": "view",
      "type": "function"
    },
    {
      "inputs": [],
      "name": "REVEAL",
      "outputs": [
        {
          "internalType": "bool",
          "name": "",
          "type": "bool"
        }
      ],
      "stateMutability": "view",
      "type": "function"
    },
    {
      "inputs": [],
      "name": "URI",
      "outputs": [
        {
          "internalType": "string",
          "name": "",
          "type": "string"
        }
      ],
      "stateMutability": "view",
      "type": "function"
    },
    {
      "inputs": [
        {
          "internalType": "address",
          "name": "to",
          "type": "address"
        },
        {
          "internalType": "uint256",
          "name": "tokenId",
          "type": "uint256"
        }
      ],
      "name": "approve",
      "outputs": [],
      "stateMutability": "nonpayable",
      "type": "function"
    },
    {
      "inputs": [
        {
          "internalType": "address",
          "name": "owner",
          "type": "address"
        }
      ],
      "name": "balanceOf",
      "outputs": [
        {
          "internalType": "uint256",
          "name": "",
          "type": "uint256"
        }
      ],
      "stateMutability": "view",
      "type": "function"
    },
    {
      "inputs": [
        {
          "internalType": "uint256",
          "name": "tokenId",
          "type": "uint256"
        }
      ],
      "name": "getApproved",
      "outputs": [
        {
          "internalType": "address",
          "name": "",
          "type": "address"
        }
      ],
      "stateMutability": "view",
      "type": "function"
    },
    {
      "inputs": [],
      "name": "getRandomPlanktonNFT",
      "outputs": [],
      "stateMutability": "payable",
      "type": "function"
    },
    {
      "inputs": [],
      "name": "getRandomSealNFT",
      "outputs": [],
      "stateMutability": "payable",
      "type": "function"
    },
    {
      "inputs": [],
      "name": "getRandomWhaleNFT",
      "outputs": [],
      "stateMutability": "payable",
      "type": "function"
    },
    {
      "inputs": [
        {
          "internalType": "address",
          "name": "owner",
          "type": "address"
        },
        {
          "internalType": "address",
          "name": "operator",
          "type": "address"
        }
      ],
      "name": "isApprovedForAll",
      "outputs": [
        {
          "internalType": "bool",
          "name": "",
          "type": "bool"
        }
      ],
      "stateMutability": "view",
      "type": "function"
    },
    {
      "inputs": [],
      "name": "isPlanktonAllowListActive",
      "outputs": [
        {
          "internalType": "bool",
          "name": "",
          "type": "bool"
        }
      ],
      "stateMutability": "view",
      "type": "function"
    },
    {
      "inputs": [],
      "name": "isSealAllowListActive",
      "outputs": [
        {
          "internalType": "bool",
          "name": "",
          "type": "bool"
        }
      ],
      "stateMutability": "view",
      "type": "function"
    },
    {
      "inputs": [],
      "name": "isWhaleAllowListActive",
      "outputs": [
        {
          "internalType": "bool",
          "name": "",
          "type": "bool"
        }
      ],
      "stateMutability": "view",
      "type": "function"
    },
    {
      "inputs": [],
      "name": "name",
      "outputs": [
        {
          "internalType": "string",
          "name": "",
          "type": "string"
        }
      ],
      "stateMutability": "view",
      "type": "function"
    },
    {
      "inputs": [
        {
          "internalType": "address",
          "name": "addr",
          "type": "address"
        }
      ],
      "name": "numAvailableToMint",
      "outputs": [
        {
          "internalType": "uint8",
          "name": "",
          "type": "uint8"
        }
      ],
      "stateMutability": "view",
      "type": "function"
    },
    {
      "inputs": [],
      "name": "owner",
      "outputs": [
        {
          "internalType": "address",
          "name": "",
          "type": "address"
        }
      ],
      "stateMutability": "view",
      "type": "function"
    },
    {
      "inputs": [
        {
          "internalType": "uint256",
          "name": "tokenId",
          "type": "uint256"
        }
      ],
      "name": "ownerOf",
      "outputs": [
        {
          "internalType": "address",
          "name": "",
          "type": "address"
        }
      ],
      "stateMutability": "view",
      "type": "function"
    },
    {
      "inputs": [
        {
          "internalType": "address",
          "name": "recipient",
          "type": "address"
        },
        {
          "internalType": "uint256",
          "name": "planktonTokenId",
          "type": "uint256"
        },
        {
          "internalType": "bytes",
          "name": "data",
          "type": "bytes"
        }
      ],
      "name": "planktonMint",
      "outputs": [],
      "stateMutability": "payable",
      "type": "function"
    },
    {
      "inputs": [
        {
          "internalType": "uint8",
          "name": "numberOfTokens",
          "type": "uint8"
        }
      ],
      "name": "planktonMintAllowList",
      "outputs": [],
      "stateMutability": "payable",
      "type": "function"
    },
    {
      "inputs": [],
      "name": "renounceOwnership",
      "outputs": [],
      "stateMutability": "nonpayable",
      "type": "function"
    },
    {
      "inputs": [
        {
          "internalType": "address",
          "name": "from",
          "type": "address"
        },
        {
          "internalType": "address",
          "name": "to",
          "type": "address"
        },
        {
          "internalType": "uint256",
          "name": "tokenId",
          "type": "uint256"
        }
      ],
      "name": "safeTransferFrom",
      "outputs": [],
      "stateMutability": "nonpayable",
      "type": "function"
    },
    {
      "inputs": [
        {
          "internalType": "address",
          "name": "from",
          "type": "address"
        },
        {
          "internalType": "address",
          "name": "to",
          "type": "address"
        },
        {
          "internalType": "uint256",
          "name": "tokenId",
          "type": "uint256"
        },
        {
          "internalType": "bytes",
          "name": "_data",
          "type": "bytes"
        }
      ],
      "name": "safeTransferFrom",
      "outputs": [],
      "stateMutability": "nonpayable",
      "type": "function"
    },
    {
      "inputs": [
        {
          "internalType": "address",
          "name": "recipient",
          "type": "address"
        },
        {
          "internalType": "uint256",
          "name": "sealTokenId",
          "type": "uint256"
        },
        {
          "internalType": "bytes",
          "name": "data",
          "type": "bytes"
        }
      ],
      "name": "sealMint",
      "outputs": [],
      "stateMutability": "payable",
      "type": "function"
    },
    {
      "inputs": [
        {
          "internalType": "uint8",
          "name": "numberOfTokens",
          "type": "uint8"
        }
      ],
      "name": "sealMintAllowList",
      "outputs": [],
      "stateMutability": "payable",
      "type": "function"
    },
    {
      "inputs": [
        {
          "internalType": "address[]",
          "name": "addresses",
          "type": "address[]"
        },
        {
          "internalType": "uint8",
          "name": "numAllowedToMint",
          "type": "uint8"
        }
      ],
      "name": "setAllowList",
      "outputs": [],
      "stateMutability": "nonpayable",
      "type": "function"
    },
    {
      "inputs": [
        {
          "internalType": "address",
          "name": "operator",
          "type": "address"
        },
        {
          "internalType": "bool",
          "name": "approved",
          "type": "bool"
        }
      ],
      "name": "setApprovalForAll",
      "outputs": [],
      "stateMutability": "nonpayable",
      "type": "function"
    },
    {
      "inputs": [
        {
          "internalType": "bool",
          "name": "_isPlanktonAllowListActive",
          "type": "bool"
        }
      ],
      "name": "setIsPlanktonAllowListActive",
      "outputs": [],
      "stateMutability": "nonpayable",
      "type": "function"
    },
    {
      "inputs": [
        {
          "internalType": "bool",
          "name": "_isSealAllowListActive",
          "type": "bool"
        }
      ],
      "name": "setIsSealAllowListActive",
      "outputs": [],
      "stateMutability": "nonpayable",
      "type": "function"
    },
    {
      "inputs": [
        {
          "internalType": "bool",
          "name": "_isWhaleAllowListActive",
          "type": "bool"
        }
      ],
      "name": "setIsWhaleAllowListActive",
      "outputs": [],
      "stateMutability": "nonpayable",
      "type": "function"
    },
    {
      "inputs": [
        {
          "internalType": "bytes4",
          "name": "interfaceId",
          "type": "bytes4"
        }
      ],
      "name": "supportsInterface",
      "outputs": [
        {
          "internalType": "bool",
          "name": "",
          "type": "bool"
        }
      ],
      "stateMutability": "view",
      "type": "function"
    },
    {
      "inputs": [],
      "name": "symbol",
      "outputs": [
        {
          "internalType": "string",
          "name": "",
          "type": "string"
        }
      ],
      "stateMutability": "view",
      "type": "function"
    },
    {
      "inputs": [
        {
          "internalType": "string",
          "name": "updatedURI",
          "type": "string"
        }
      ],
      "name": "toggleReveal",
      "outputs": [],
      "stateMutability": "nonpayable",
      "type": "function"
    },
    {
      "inputs": [
        {
          "internalType": "uint256",
          "name": "index",
          "type": "uint256"
        }
      ],
      "name": "tokenByIndex",
      "outputs": [
        {
          "internalType": "uint256",
          "name": "",
          "type": "uint256"
        }
      ],
      "stateMutability": "view",
      "type": "function"
    },
    {
      "inputs": [
        {
          "internalType": "address",
          "name": "owner",
          "type": "address"
        },
        {
          "internalType": "uint256",
          "name": "index",
          "type": "uint256"
        }
      ],
      "name": "tokenOfOwnerByIndex",
      "outputs": [
        {
          "internalType": "uint256",
          "name": "",
          "type": "uint256"
        }
      ],
      "stateMutability": "view",
      "type": "function"
    },
    {
      "inputs": [
        {
          "internalType": "uint256",
          "name": "tokenId",
          "type": "uint256"
        }
      ],
      "name": "tokenURI",
      "outputs": [
        {
          "internalType": "string",
          "name": "",
          "type": "string"
        }
      ],
      "stateMutability": "view",
      "type": "function"
    },
    {
      "inputs": [],
      "name": "totalSupply",
      "outputs": [
        {
          "internalType": "uint256",
          "name": "",
          "type": "uint256"
        }
      ],
      "stateMutability": "view",
      "type": "function"
    },
    {
      "inputs": [
        {
          "internalType": "address",
          "name": "from",
          "type": "address"
        },
        {
          "internalType": "address",
          "name": "to",
          "type": "address"
        },
        {
          "internalType": "uint256",
          "name": "tokenId",
          "type": "uint256"
        }
      ],
      "name": "transferFrom",
      "outputs": [],
      "stateMutability": "nonpayable",
      "type": "function"
    },
    {
      "inputs": [
        {
          "internalType": "address",
          "name": "newOwner",
          "type": "address"
        }
      ],
      "name": "transferOwnership",
      "outputs": [],
      "stateMutability": "nonpayable",
      "type": "function"
    },
    {
      "inputs": [
        {
          "internalType": "address",
          "name": "recipient",
          "type": "address"
        },
        {
          "internalType": "uint256",
          "name": "whaleTokenId",
          "type": "uint256"
        },
        {
          "internalType": "bytes",
          "name": "data",
          "type": "bytes"
        }
      ],
      "name": "whaleMint",
      "outputs": [],
      "stateMutability": "payable",
      "type": "function"
    },
    {
      "inputs": [
        {
          "internalType": "uint8",
          "name": "numberOfTokens",
          "type": "uint8"
        }
      ],
      "name": "whaleMintAllowList",
      "outputs": [],
      "stateMutability": "payable",
      "type": "function"
    }
  ],
  "bytecode": "0x60806040526000600a60146101000a81548160ff0219169083151502179055506000600a60156101000a81548160ff0219169083151502179055506000600a60166101000a81548160ff0219169083151502179055506000600a60176101000a81548160ff0219169083151502179055506032600e556096600f55610af06010556001601155600460125560138055603360145560366015556045601655607e60175560c960185560cc60195560e0601a55610178601b55610515601c55348015620000ca57600080fd5b506040516200570d3803806200570d8339818101604052810190620000f0919062000358565b828281600090805190602001906200010a92919062000236565b5080600190805190602001906200012392919062000236565b505050620001466200013a6200016860201b60201c565b6200017060201b60201c565b80600b90805190602001906200015e92919062000236565b505050506200052a565b600033905090565b6000600a60009054906101000a900473ffffffffffffffffffffffffffffffffffffffff16905081600a60006101000a81548173ffffffffffffffffffffffffffffffffffffffff021916908373ffffffffffffffffffffffffffffffffffffffff1602179055508173ffffffffffffffffffffffffffffffffffffffff168173ffffffffffffffffffffffffffffffffffffffff167f8be0079c531659141344cd1fd0a4f28419497f9722a3daafe3b4186f6b6457e060405160405180910390a35050565b828054620002449062000496565b90600052602060002090601f016020900481019282620002685760008555620002b4565b82601f106200028357805160ff1916838001178555620002b4565b82800160010185558215620002b4579182015b82811115620002b357825182559160200191906001019062000296565b5b509050620002c39190620002c7565b5090565b5b80821115620002e2576000816000905550600101620002c8565b5090565b6000620002fd620002f7846200042d565b620003f9565b9050828152602081018484840111156200031657600080fd5b6200032384828562000460565b509392505050565b600082601f8301126200033d57600080fd5b81516200034f848260208601620002e6565b91505092915050565b6000806000606084860312156200036e57600080fd5b600084015167ffffffffffffffff8111156200038957600080fd5b62000397868287016200032b565b935050602084015167ffffffffffffffff811115620003b557600080fd5b620003c3868287016200032b565b925050604084015167ffffffffffffffff811115620003e157600080fd5b620003ef868287016200032b565b9150509250925092565b6000604051905081810181811067ffffffffffffffff82111715620004235762000422620004fb565b5b8060405250919050565b600067ffffffffffffffff8211156200044b576200044a620004fb565b5b601f19601f8301169050602081019050919050565b60005b838110156200048057808201518184015260208101905062000463565b8381111562000490576000848401525b50505050565b60006002820490506001821680620004af57607f821691505b60208210811415620004c657620004c5620004cc565b5b50919050565b7f4e487b7100000000000000000000000000000000000000000000000000000000600052602260045260246000fd5b7f4e487b7100000000000000000000000000000000000000000000000000000000600052604160045260246000fd5b6151d3806200053a6000396000f3fe6080604052600436106102725760003560e01c806365eb29791161014f578063a22cb465116100c1578063d89b17461161007a578063d89b17461461090f578063dc89a2071461092b578063e985e9c514610935578063f2fde38b14610972578063f3a2a0721461099b578063fc612a53146109b757610272565b8063a22cb46514610810578063b88d4fde14610839578063bac528f714610862578063c04a28361461086c578063c87b56dd146108a9578063c89e036a146108e657610272565b806382651bd01161011357806382651bd0146107105780638295784d1461073b5780638972e51a146107645780638da5cb5b1461078f57806395d89b41146107ba5780639d655ef5146107e557610272565b806365eb29791461063d57806370a0823114610666578063715018a6146106a357806378a0a3e9146106ba57806379913ee2146106e557610272565b806323b872dd116101e857806342842e0e116101ac57806342842e0e1461052a578063477307e0146105535780634aa22f571461056f5780634f6ccce71461059a5780635d8c2efd146105d75780636352211e1461060057610272565b806323b872dd146104615780632d2a3cc01461048a5780632f745c59146104b557806330457889146104f25780633538f2081461050e57610272565b80631141d7de1161023a5780631141d7de14610370578063171153fe1461039b57806318160ddd146103b757806318d52626146103e25780631a6d4c711461040d5780631e3e62db1461043857610272565b806301ffc9a71461027757806306fdde03146102b4578063081812fc146102df578063095ea7b31461031c5780630c49267614610345575b600080fd5b34801561028357600080fd5b5061029e60048036038101906102999190613e3d565b6109c1565b6040516102ab919061491f565b60405180910390f35b3480156102c057600080fd5b506102c96109d3565b6040516102d6919061493a565b60405180910390f35b3480156102eb57600080fd5b5061030660048036038101906103019190613ed0565b610a65565b60405161031391906148b8565b60405180910390f35b34801561032857600080fd5b50610343600480360381019061033e9190613d19565b610aea565b005b34801561035157600080fd5b5061035a610c02565b6040516103679190614c5c565b60405180910390f35b34801561037c57600080fd5b50610385610c08565b604051610392919061493a565b60405180910390f35b6103b560048036038101906103b09190613d55565b610c96565b005b3480156103c357600080fd5b506103cc610cf7565b6040516103d99190614c5c565b60405180910390f35b3480156103ee57600080fd5b506103f7610d04565b6040516104049190614c5c565b60405180910390f35b34801561041957600080fd5b50610422610d10565b60405161042f919061491f565b60405180910390f35b34801561044457600080fd5b5061045f600480360381019061045a9190613e14565b610d23565b005b34801561046d57600080fd5b5061048860048036038101906104839190613c13565b610dbc565b005b34801561049657600080fd5b5061049f610e1c565b6040516104ac9190614c5c565b60405180910390f35b3480156104c157600080fd5b506104dc60048036038101906104d79190613d19565b610e28565b6040516104e99190614c5c565b60405180910390f35b61050c60048036038101906105079190613ef9565b610ecd565b005b61052860048036038101906105239190613d55565b611126565b005b34801561053657600080fd5b50610551600480360381019061054c9190613c13565b611187565b005b61056d60048036038101906105689190613d55565b6111a7565b005b34801561057b57600080fd5b50610584611209565b604051610591919061491f565b60405180910390f35b3480156105a657600080fd5b506105c160048036038101906105bc9190613ed0565b61121c565b6040516105ce9190614c5c565b60405180910390f35b3480156105e357600080fd5b506105fe60048036038101906105f99190613e8f565b6112b3565b005b34801561060c57600080fd5b5061062760048036038101906106229190613ed0565b611373565b60405161063491906148b8565b60405180910390f35b34801561064957600080fd5b50610664600480360381019061065f9190613e14565b611425565b005b34801561067257600080fd5b5061068d60048036038101906106889190613bae565b6114be565b60405161069a9190614c5c565b60405180910390f35b3480156106af57600080fd5b506106b8611576565b005b3480156106c657600080fd5b506106cf6115fe565b6040516106dc9190614c5c565b60405180910390f35b3480156106f157600080fd5b506106fa611603565b604051610707919061491f565b60405180910390f35b34801561071c57600080fd5b50610725611616565b604051610732919061491f565b60405180910390f35b34801561074757600080fd5b50610762600480360381019061075d9190613dbc565b611629565b005b34801561077057600080fd5b50610779611771565b6040516107869190614c5c565b60405180910390f35b34801561079b57600080fd5b506107a4611776565b6040516107b191906148b8565b60405180910390f35b3480156107c657600080fd5b506107cf6117a0565b6040516107dc919061493a565b60405180910390f35b3480156107f157600080fd5b506107fa611832565b6040516108079190614c5c565b60405180910390f35b34801561081c57600080fd5b5061083760048036038101906108329190613cdd565b61183e565b005b34801561084557600080fd5b50610860600480360381019061085b9190613c62565b611854565b005b61086a6118b6565b005b34801561087857600080fd5b50610893600480360381019061088e9190613bae565b611a4f565b6040516108a09190614c77565b60405180910390f35b3480156108b557600080fd5b506108d060048036038101906108cb9190613ed0565b611aa5565b6040516108dd919061493a565b60405180910390f35b3480156108f257600080fd5b5061090d60048036038101906109089190613e14565b611c4b565b005b61092960048036038101906109249190613ef9565b611ce4565b005b610933611f3e565b005b34801561094157600080fd5b5061095c60048036038101906109579190613bd7565b612130565b604051610969919061491f565b60405180910390f35b34801561097e57600080fd5b5061099960048036038101906109949190613bae565b6121c4565b005b6109b560048036038101906109b09190613ef9565b6122bc565b005b6109bf612515565b005b60006109cc8261264e565b9050919050565b6060600080546109e290614fb1565b80601f0160208091040260200160405190810160405280929190818152602001828054610a0e90614fb1565b8015610a5b5780601f10610a3057610100808354040283529160200191610a5b565b820191906000526020600020905b815481529060010190602001808311610a3e57829003601f168201915b5050505050905090565b6000610a70826126c8565b610aaf576040517f08c379a0000000000000000000000000000000000000000000000000000000008152600401610aa690614b7c565b60405180910390fd5b6004600083815260200190815260200160002060009054906101000a900473ffffffffffffffffffffffffffffffffffffffff169050919050565b6000610af582611373565b90508073ffffffffffffffffffffffffffffffffffffffff168373ffffffffffffffffffffffffffffffffffffffff161415610b66576040517f08c379a0000000000000000000000000000000000000000000000000000000008152600401610b5d90614bbc565b60405180910390fd5b8073ffffffffffffffffffffffffffffffffffffffff16610b85612734565b73ffffffffffffffffffffffffffffffffffffffff161480610bb45750610bb381610bae612734565b612130565b5b610bf3576040517f08c379a0000000000000000000000000000000000000000000000000000000008152600401610bea90614adc565b60405180910390fd5b610bfd838361273c565b505050565b610af081565b600b8054610c1590614fb1565b80601f0160208091040260200160405190810160405280929190818152602001828054610c4190614fb1565b8015610c8e5780601f10610c6357610100808354040283529160200191610c8e565b820191906000526020600020905b815481529060010190602001808311610c7157829003601f168201915b505050505081565b60018210158015610ca8575060328211155b610ce7576040517f08c379a0000000000000000000000000000000000000000000000000000000008152600401610cde90614b5c565b60405180910390fd5b610cf28383836127f5565b505050565b6000600880549050905090565b670de0b6b3a764000081565b600a60159054906101000a900460ff1681565b610d2b612734565b73ffffffffffffffffffffffffffffffffffffffff16610d49611776565b73ffffffffffffffffffffffffffffffffffffffff1614610d9f576040517f08c379a0000000000000000000000000000000000000000000000000000000008152600401610d9690614b9c565b60405180910390fd5b80600a60156101000a81548160ff02191690831515021790555050565b610dcd610dc7612734565b82612850565b610e0c576040517f08c379a0000000000000000000000000000000000000000000000000000000008152600401610e0390614bfc565b60405180910390fd5b610e1783838361292e565b505050565b6702c68af0bb14000081565b6000610e33836114be565b8210610e74576040517f08c379a0000000000000000000000000000000000000000000000000000000008152600401610e6b9061497c565b60405180910390fd5b600660008473ffffffffffffffffffffffffffffffffffffffff1673ffffffffffffffffffffffffffffffffffffffff168152602001908152602001600020600083815260200190815260200160002054905092915050565b6000610ed7610cf7565b9050600a60169054906101000a900460ff16610f28576040517f08c379a0000000000000000000000000000000000000000000000000000000008152600401610f1f90614c3c565b60405180910390fd5b600c60003373ffffffffffffffffffffffffffffffffffffffff1673ffffffffffffffffffffffffffffffffffffffff16815260200190815260200160002060009054906101000a900460ff1660ff168260ff161115610fbd576040517f08c379a0000000000000000000000000000000000000000000000000000000008152600401610fb490614bdc565b60405180910390fd5b60968260ff1682610fce9190614d7b565b111561100f576040517f08c379a0000000000000000000000000000000000000000000000000000000008152600401611006906149dc565b60405180910390fd5b348260ff166702c68af0bb1400006110279190614e02565b1115611068576040517f08c379a000000000000000000000000000000000000000000000000000000000815260040161105f90614a9c565b60405180910390fd5b81600c60003373ffffffffffffffffffffffffffffffffffffffff1673ffffffffffffffffffffffffffffffffffffffff16815260200190815260200160002060008282829054906101000a900460ff166110c39190614e90565b92506101000a81548160ff021916908360ff16021790555060005b8260ff168110156111215761110e3382846110f99190614d7b565b60405180602001604052806000815250611126565b808061111990614fe3565b9150506110de565b505050565b60338210158015611138575060c88211155b611177576040517f08c379a000000000000000000000000000000000000000000000000000000000815260040161116e90614a3c565b60405180910390fd5b6111828383836127f5565b505050565b6111a283838360405180602001604052806000815250611854565b505050565b60c982101580156111ba5750610bb88211155b6111f9576040517f08c379a00000000000000000000000000000000000000000000000000000000081526004016111f09061495c565b60405180910390fd5b6112048383836127f5565b505050565b600a60179054906101000a900460ff1681565b6000611226610cf7565b8210611267576040517f08c379a000000000000000000000000000000000000000000000000000000000815260040161125e90614c1c565b60405180910390fd5b600882815481106112a1577f4e487b7100000000000000000000000000000000000000000000000000000000600052603260045260246000fd5b90600052602060002001549050919050565b6112bb612734565b73ffffffffffffffffffffffffffffffffffffffff166112d9611776565b73ffffffffffffffffffffffffffffffffffffffff161461132f576040517f08c379a000000000000000000000000000000000000000000000000000000000815260040161132690614b9c565b60405180910390fd5b600a60149054906101000a900460ff1615600a60146101000a81548160ff02191690831515021790555080600b908051906020019061136f929190613973565b5050565b6000806002600084815260200190815260200160002060009054906101000a900473ffffffffffffffffffffffffffffffffffffffff169050600073ffffffffffffffffffffffffffffffffffffffff168173ffffffffffffffffffffffffffffffffffffffff16141561141c576040517f08c379a000000000000000000000000000000000000000000000000000000000815260040161141390614b1c565b60405180910390fd5b80915050919050565b61142d612734565b73ffffffffffffffffffffffffffffffffffffffff1661144b611776565b73ffffffffffffffffffffffffffffffffffffffff16146114a1576040517f08c379a000000000000000000000000000000000000000000000000000000000815260040161149890614b9c565b60405180910390fd5b80600a60166101000a81548160ff02191690831515021790555050565b60008073ffffffffffffffffffffffffffffffffffffffff168273ffffffffffffffffffffffffffffffffffffffff16141561152f576040517f08c379a000000000000000000000000000000000000000000000000000000000815260040161152690614afc565b60405180910390fd5b600360008373ffffffffffffffffffffffffffffffffffffffff1673ffffffffffffffffffffffffffffffffffffffff168152602001908152602001600020549050919050565b61157e612734565b73ffffffffffffffffffffffffffffffffffffffff1661159c611776565b73ffffffffffffffffffffffffffffffffffffffff16146115f2576040517f08c379a00000000000000000000000000000000000000000000000000000000081526004016115e990614b9c565b60405180910390fd5b6115fc6000612b95565b565b603281565b600a60169054906101000a900460ff1681565b600a60149054906101000a900460ff1681565b611631612734565b73ffffffffffffffffffffffffffffffffffffffff1661164f611776565b73ffffffffffffffffffffffffffffffffffffffff16146116a5576040517f08c379a000000000000000000000000000000000000000000000000000000000815260040161169c90614b9c565b60405180910390fd5b60005b8383905081101561176b5781600c60008686858181106116f1577f4e487b7100000000000000000000000000000000000000000000000000000000600052603260045260246000fd5b90506020020160208101906117069190613bae565b73ffffffffffffffffffffffffffffffffffffffff1673ffffffffffffffffffffffffffffffffffffffff16815260200190815260200160002060006101000a81548160ff021916908360ff160217905550808061176390614fe3565b9150506116a8565b50505050565b609681565b6000600a60009054906101000a900473ffffffffffffffffffffffffffffffffffffffff16905090565b6060600180546117af90614fb1565b80601f01602080910402602001604051908101604052809291908181526020018280546117db90614fb1565b80156118285780601f106117fd57610100808354040283529160200191611828565b820191906000526020600020905b81548152906001019060200180831161180b57829003601f168201915b5050505050905090565b67016345785d8a000081565b611850611849612734565b8383612c5b565b5050565b61186561185f612734565b83612850565b6118a4576040517f08c379a000000000000000000000000000000000000000000000000000000000815260040161189b90614bfc565b60405180910390fd5b6118b084848484612dc8565b50505050565b60006001600f54600f54436118cb9190614dd1565b6118d5919061502c565b6118df9190614d7b565b60326118eb9190614d7b565b9050600f600081548092919061190090614f87565b9190505550603581111580156119195750603560145411155b156119575761193a3360145460405180602001604052806000815250611126565b6014600081548092919061194d90614fe3565b9190505550611a4c565b6044811115801561196b5750604460155411155b156119a95761198c3360155460405180602001604052806000815250611126565b6015600081548092919061199f90614fe3565b9190505550611a4b565b607d81111580156119bd5750607d60165411155b156119fb576119de3360165460405180602001604052806000815250611126565b601660008154809291906119f190614fe3565b9190505550611a4a565b60c88111158015611a0f575060c860175411155b15611a4957611a303360175460405180602001604052806000815250611126565b60176000815480929190611a4390614fe3565b91905055505b5b5b5b50565b6000600c60008373ffffffffffffffffffffffffffffffffffffffff1673ffffffffffffffffffffffffffffffffffffffff16815260200190815260200160002060009054906101000a900460ff169050919050565b6060600a60149054906101000a900460ff1615611bb8576000600d60008481526020019081526020016000208054611adc90614fb1565b905014611b8657600d60008381526020019081526020016000208054611b0190614fb1565b80601f0160208091040260200160405190810160405280929190818152602001828054611b2d90614fb1565b8015611b7a5780601f10611b4f57610100808354040283529160200191611b7a565b820191906000526020600020905b815481529060010190602001808311611b5d57829003601f168201915b50505050509050611c46565b600b611b9183612e24565b604051602001611ba2929190614894565b6040516020818303038152906040529050611c46565b600b8054611bc590614fb1565b80601f0160208091040260200160405190810160405280929190818152602001828054611bf190614fb1565b8015611c3e5780601f10611c1357610100808354040283529160200191611c3e565b820191906000526020600020905b815481529060010190602001808311611c2157829003601f168201915b505050505090505b919050565b611c53612734565b73ffffffffffffffffffffffffffffffffffffffff16611c71611776565b73ffffffffffffffffffffffffffffffffffffffff1614611cc7576040517f08c379a0000000000000000000000000000000000000000000000000000000008152600401611cbe90614b9c565b60405180910390fd5b80600a60176101000a81548160ff02191690831515021790555050565b6000611cee610cf7565b9050600a60179054906101000a900460ff16611d3f576040517f08c379a0000000000000000000000000000000000000000000000000000000008152600401611d3690614c3c565b60405180910390fd5b600c60003373ffffffffffffffffffffffffffffffffffffffff1673ffffffffffffffffffffffffffffffffffffffff16815260200190815260200160002060009054906101000a900460ff1660ff168260ff161115611dd4576040517f08c379a0000000000000000000000000000000000000000000000000000000008152600401611dcb90614bdc565b60405180910390fd5b610af08260ff1682611de69190614d7b565b1115611e27576040517f08c379a0000000000000000000000000000000000000000000000000000000008152600401611e1e906149dc565b60405180910390fd5b348260ff1667016345785d8a0000611e3f9190614e02565b1115611e80576040517f08c379a0000000000000000000000000000000000000000000000000000000008152600401611e7790614a9c565b60405180910390fd5b81600c60003373ffffffffffffffffffffffffffffffffffffffff1673ffffffffffffffffffffffffffffffffffffffff16815260200190815260200160002060008282829054906101000a900460ff16611edb9190614e90565b92506101000a81548160ff021916908360ff16021790555060005b8260ff16811015611f3957611f26338284611f119190614d7b565b604051806020016040528060008152506111a7565b8080611f3190614fe3565b915050611ef6565b505050565b6000600160105460105443611f539190614dd1565b611f5d919061502c565b611f679190614d7b565b60c8611f739190614d7b565b905060106000815480929190611f8890614f87565b919050555060cb8111158015611fa1575060cb60185411155b15611fdf57611fc233601854604051806020016040528060008152506111a7565b60186000815480929190611fd590614fe3565b919050555061212d565b60df8111158015611ff3575060df60195411155b156120315761201433601954604051806020016040528060008152506111a7565b6019600081548092919061202790614fe3565b919050555061212c565b61017781111580156120475750610177601a5411155b156120855761206833601a54604051806020016040528060008152506111a7565b601a600081548092919061207b90614fe3565b919050555061212b565b610514811115801561209b5750610514601b5411155b156120d9576120bc33601b54604051806020016040528060008152506111a7565b601b60008154809291906120cf90614fe3565b919050555061212a565b610bb881111580156120ef5750610bb8601c5411155b156121295761211033601c54604051806020016040528060008152506111a7565b601c600081548092919061212390614fe3565b91905055505b5b5b5b5b50565b6000600560008473ffffffffffffffffffffffffffffffffffffffff1673ffffffffffffffffffffffffffffffffffffffff16815260200190815260200160002060008373ffffffffffffffffffffffffffffffffffffffff1673ffffffffffffffffffffffffffffffffffffffff16815260200190815260200160002060009054906101000a900460ff16905092915050565b6121cc612734565b73ffffffffffffffffffffffffffffffffffffffff166121ea611776565b73ffffffffffffffffffffffffffffffffffffffff1614612240576040517f08c379a000000000000000000000000000000000000000000000000000000000815260040161223790614b9c565b60405180910390fd5b600073ffffffffffffffffffffffffffffffffffffffff168173ffffffffffffffffffffffffffffffffffffffff1614156122b0576040517f08c379a00000000000000000000000000000000000000000000000000000000081526004016122a7906149bc565b60405180910390fd5b6122b981612b95565b50565b60006122c6610cf7565b9050600a60159054906101000a900460ff16612317576040517f08c379a000000000000000000000000000000000000000000000000000000000815260040161230e90614c3c565b60405180910390fd5b600c60003373ffffffffffffffffffffffffffffffffffffffff1673ffffffffffffffffffffffffffffffffffffffff16815260200190815260200160002060009054906101000a900460ff1660ff168260ff1611156123ac576040517f08c379a00000000000000000000000000000000000000000000000000000000081526004016123a390614bdc565b60405180910390fd5b60328260ff16826123bd9190614d7b565b11156123fe576040517f08c379a00000000000000000000000000000000000000000000000000000000081526004016123f5906149dc565b60405180910390fd5b348260ff16670de0b6b3a76400006124169190614e02565b1115612457576040517f08c379a000000000000000000000000000000000000000000000000000000000815260040161244e90614a9c565b60405180910390fd5b81600c60003373ffffffffffffffffffffffffffffffffffffffff1673ffffffffffffffffffffffffffffffffffffffff16815260200190815260200160002060008282829054906101000a900460ff166124b29190614e90565b92506101000a81548160ff021916908360ff16021790555060005b8260ff16811015612510576124fd3382846124e89190614d7b565b60405180602001604052806000815250610c96565b808061250890614fe3565b9150506124cd565b505050565b60006001600e54600e544361252a9190614dd1565b612534919061502c565b61253e9190614d7b565b9050600e600081548092919061255390614f87565b91905055506003811115801561256c5750600360115411155b156125aa5761258d3360115460405180602001604052806000815250610c96565b601160008154809291906125a090614fe3565b919050555061264b565b601281111580156125bd57506012805411155b156125fb576125de3360125460405180602001604052806000815250610c96565b601260008154809291906125f190614fe3565b919050555061264a565b6032811115801561260f5750603260135411155b15612649576126303360135460405180602001604052806000815250610c96565b6013600081548092919061264390614fe3565b91905055505b5b5b50565b60007f780e9d63000000000000000000000000000000000000000000000000000000007bffffffffffffffffffffffffffffffffffffffffffffffffffffffff1916827bffffffffffffffffffffffffffffffffffffffffffffffffffffffff191614806126c157506126c082612fd1565b5b9050919050565b60008073ffffffffffffffffffffffffffffffffffffffff166002600084815260200190815260200160002060009054906101000a900473ffffffffffffffffffffffffffffffffffffffff1673ffffffffffffffffffffffffffffffffffffffff1614159050919050565b600033905090565b816004600083815260200190815260200160002060006101000a81548173ffffffffffffffffffffffffffffffffffffffff021916908373ffffffffffffffffffffffffffffffffffffffff160217905550808273ffffffffffffffffffffffffffffffffffffffff166127af83611373565b73ffffffffffffffffffffffffffffffffffffffff167f8c5be1e5ebec7d5bd14f71427d1e84f3dd0314c0f7b2291e5b200ac8c7c3b92560405160405180910390a45050565b6127ff83836130b3565b61280c600084848461328d565b61284b576040517f08c379a00000000000000000000000000000000000000000000000000000000081526004016128429061499c565b60405180910390fd5b505050565b600061285b826126c8565b61289a576040517f08c379a000000000000000000000000000000000000000000000000000000000815260040161289190614abc565b60405180910390fd5b60006128a583611373565b90508073ffffffffffffffffffffffffffffffffffffffff168473ffffffffffffffffffffffffffffffffffffffff1614806128e757506128e68185612130565b5b8061292557508373ffffffffffffffffffffffffffffffffffffffff1661290d84610a65565b73ffffffffffffffffffffffffffffffffffffffff16145b91505092915050565b8273ffffffffffffffffffffffffffffffffffffffff1661294e82611373565b73ffffffffffffffffffffffffffffffffffffffff16146129a4576040517f08c379a000000000000000000000000000000000000000000000000000000000815260040161299b906149fc565b60405180910390fd5b600073ffffffffffffffffffffffffffffffffffffffff168273ffffffffffffffffffffffffffffffffffffffff161415612a14576040517f08c379a0000000000000000000000000000000000000000000000000000000008152600401612a0b90614a5c565b60405180910390fd5b612a1f838383613424565b612a2a60008261273c565b6001600360008573ffffffffffffffffffffffffffffffffffffffff1673ffffffffffffffffffffffffffffffffffffffff1681526020019081526020016000206000828254612a7a9190614e5c565b925050819055506001600360008473ffffffffffffffffffffffffffffffffffffffff1673ffffffffffffffffffffffffffffffffffffffff1681526020019081526020016000206000828254612ad19190614d7b565b92505081905550816002600083815260200190815260200160002060006101000a81548173ffffffffffffffffffffffffffffffffffffffff021916908373ffffffffffffffffffffffffffffffffffffffff160217905550808273ffffffffffffffffffffffffffffffffffffffff168473ffffffffffffffffffffffffffffffffffffffff167fddf252ad1be2c89b69c2b068fc378daa952ba7f163c4a11628f55a4df523b3ef60405160405180910390a4612b90838383613434565b505050565b6000600a60009054906101000a900473ffffffffffffffffffffffffffffffffffffffff16905081600a60006101000a81548173ffffffffffffffffffffffffffffffffffffffff021916908373ffffffffffffffffffffffffffffffffffffffff1602179055508173ffffffffffffffffffffffffffffffffffffffff168173ffffffffffffffffffffffffffffffffffffffff167f8be0079c531659141344cd1fd0a4f28419497f9722a3daafe3b4186f6b6457e060405160405180910390a35050565b8173ffffffffffffffffffffffffffffffffffffffff168373ffffffffffffffffffffffffffffffffffffffff161415612cca576040517f08c379a0000000000000000000000000000000000000000000000000000000008152600401612cc190614a7c565b60405180910390fd5b80600560008573ffffffffffffffffffffffffffffffffffffffff1673ffffffffffffffffffffffffffffffffffffffff16815260200190815260200160002060008473ffffffffffffffffffffffffffffffffffffffff1673ffffffffffffffffffffffffffffffffffffffff16815260200190815260200160002060006101000a81548160ff0219169083151502179055508173ffffffffffffffffffffffffffffffffffffffff168373ffffffffffffffffffffffffffffffffffffffff167f17307eab39ab6107e8899845ad3d59bd9653f200f220920489ca2b5937696c3183604051612dbb919061491f565b60405180910390a3505050565b612dd384848461292e565b612ddf8484848461328d565b612e1e576040517f08c379a0000000000000000000000000000000000000000000000000000000008152600401612e159061499c565b60405180910390fd5b50505050565b60606000821415612e6c576040518060400160405280600181526020017f30000000000000000000000000000000000000000000000000000000000000008152509050612fcc565b600082905060005b60008214612e9e578080612e8790614fe3565b915050600a82612e979190614dd1565b9150612e74565b60008167ffffffffffffffff811115612ee0577f4e487b7100000000000000000000000000000000000000000000000000000000600052604160045260246000fd5b6040519080825280601f01601f191660200182016040528015612f125781602001600182028036833780820191505090505b5090505b60008514612fc557600182612f2b9190614e5c565b9150600a85612f3a919061502c565b6030612f469190614d7b565b60f81b818381518110612f82577f4e487b7100000000000000000000000000000000000000000000000000000000600052603260045260246000fd5b60200101907effffffffffffffffffffffffffffffffffffffffffffffffffffffffffffff1916908160001a905350600a85612fbe9190614dd1565b9450612f16565b8093505050505b919050565b60007f80ac58cd000000000000000000000000000000000000000000000000000000007bffffffffffffffffffffffffffffffffffffffffffffffffffffffff1916827bffffffffffffffffffffffffffffffffffffffffffffffffffffffff1916148061309c57507f5b5e139f000000000000000000000000000000000000000000000000000000007bffffffffffffffffffffffffffffffffffffffffffffffffffffffff1916827bffffffffffffffffffffffffffffffffffffffffffffffffffffffff1916145b806130ac57506130ab82613439565b5b9050919050565b600073ffffffffffffffffffffffffffffffffffffffff168273ffffffffffffffffffffffffffffffffffffffff161415613123576040517f08c379a000000000000000000000000000000000000000000000000000000000815260040161311a90614b3c565b60405180910390fd5b61312c816126c8565b1561316c576040517f08c379a000000000000000000000000000000000000000000000000000000000815260040161316390614a1c565b60405180910390fd5b61317860008383613424565b6001600360008473ffffffffffffffffffffffffffffffffffffffff1673ffffffffffffffffffffffffffffffffffffffff16815260200190815260200160002060008282546131c89190614d7b565b92505081905550816002600083815260200190815260200160002060006101000a81548173ffffffffffffffffffffffffffffffffffffffff021916908373ffffffffffffffffffffffffffffffffffffffff160217905550808273ffffffffffffffffffffffffffffffffffffffff16600073ffffffffffffffffffffffffffffffffffffffff167fddf252ad1be2c89b69c2b068fc378daa952ba7f163c4a11628f55a4df523b3ef60405160405180910390a461328960008383613434565b5050565b60006132ae8473ffffffffffffffffffffffffffffffffffffffff166134a3565b15613417578373ffffffffffffffffffffffffffffffffffffffff1663150b7a026132d7612734565b8786866040518563ffffffff1660e01b81526004016132f994939291906148d3565b602060405180830381600087803b15801561331357600080fd5b505af192505050801561334457506040513d601f19601f820116820180604052508101906133419190613e66565b60015b6133c7573d8060008114613374576040519150601f19603f3d011682016040523d82523d6000602084013e613379565b606091505b506000815114156133bf576040517f08c379a00000000000000000000000000000000000000000000000000000000081526004016133b69061499c565b60405180910390fd5b805181602001fd5b63150b7a0260e01b7bffffffffffffffffffffffffffffffffffffffffffffffffffffffff1916817bffffffffffffffffffffffffffffffffffffffffffffffffffffffff19161491505061341c565b600190505b949350505050565b61342f8383836134e2565b505050565b505050565b60007f01ffc9a7000000000000000000000000000000000000000000000000000000007bffffffffffffffffffffffffffffffffffffffffffffffffffffffff1916827bffffffffffffffffffffffffffffffffffffffffffffffffffffffff1916149050919050565b6000808273ffffffffffffffffffffffffffffffffffffffff16803b806020016040519081016040528181526000908060200190933c51119050919050565b6134ed8383836135f6565b600073ffffffffffffffffffffffffffffffffffffffff168373ffffffffffffffffffffffffffffffffffffffff1614156135305761352b816135fb565b61356f565b8173ffffffffffffffffffffffffffffffffffffffff168373ffffffffffffffffffffffffffffffffffffffff161461356e5761356d8382613644565b5b5b600073ffffffffffffffffffffffffffffffffffffffff168273ffffffffffffffffffffffffffffffffffffffff1614156135b2576135ad816137b1565b6135f1565b8273ffffffffffffffffffffffffffffffffffffffff168273ffffffffffffffffffffffffffffffffffffffff16146135f0576135ef82826138f4565b5b5b505050565b505050565b6008805490506009600083815260200190815260200160002081905550600881908060018154018082558091505060019003906000526020600020016000909190919091505550565b60006001613651846114be565b61365b9190614e5c565b9050600060076000848152602001908152602001600020549050818114613740576000600660008673ffffffffffffffffffffffffffffffffffffffff1673ffffffffffffffffffffffffffffffffffffffff168152602001908152602001600020600084815260200190815260200160002054905080600660008773ffffffffffffffffffffffffffffffffffffffff1673ffffffffffffffffffffffffffffffffffffffff168152602001908152602001600020600084815260200190815260200160002081905550816007600083815260200190815260200160002081905550505b6007600084815260200190815260200160002060009055600660008573ffffffffffffffffffffffffffffffffffffffff1673ffffffffffffffffffffffffffffffffffffffff16815260200190815260200160002060008381526020019081526020016000206000905550505050565b600060016008805490506137c59190614e5c565b905060006009600084815260200190815260200160002054905060006008838154811061381b577f4e487b7100000000000000000000000000000000000000000000000000000000600052603260045260246000fd5b906000526020600020015490508060088381548110613863577f4e487b7100000000000000000000000000000000000000000000000000000000600052603260045260246000fd5b9060005260206000200181905550816009600083815260200190815260200160002081905550600960008581526020019081526020016000206000905560088054806138d8577f4e487b7100000000000000000000000000000000000000000000000000000000600052603160045260246000fd5b6001900381819060005260206000200160009055905550505050565b60006138ff836114be565b905081600660008573ffffffffffffffffffffffffffffffffffffffff1673ffffffffffffffffffffffffffffffffffffffff168152602001908152602001600020600083815260200190815260200160002081905550806007600084815260200190815260200160002081905550505050565b82805461397f90614fb1565b90600052602060002090601f0160209004810192826139a157600085556139e8565b82601f106139ba57805160ff19168380011785556139e8565b828001600101855582156139e8579182015b828111156139e75782518255916020019190600101906139cc565b5b5090506139f591906139f9565b5090565b5b80821115613a125760008160009055506001016139fa565b5090565b6000613a29613a2484614cc3565b614c92565b905082815260208101848484011115613a4157600080fd5b613a4c848285614f45565b509392505050565b6000613a67613a6284614cf3565b614c92565b905082815260208101848484011115613a7f57600080fd5b613a8a848285614f45565b509392505050565b600081359050613aa18161512a565b92915050565b60008083601f840112613ab957600080fd5b8235905067ffffffffffffffff811115613ad257600080fd5b602083019150836020820283011115613aea57600080fd5b9250929050565b600081359050613b0081615141565b92915050565b600081359050613b1581615158565b92915050565b600081519050613b2a81615158565b92915050565b600082601f830112613b4157600080fd5b8135613b51848260208601613a16565b91505092915050565b600082601f830112613b6b57600080fd5b8135613b7b848260208601613a54565b91505092915050565b600081359050613b938161516f565b92915050565b600081359050613ba881615186565b92915050565b600060208284031215613bc057600080fd5b6000613bce84828501613a92565b91505092915050565b60008060408385031215613bea57600080fd5b6000613bf885828601613a92565b9250506020613c0985828601613a92565b9150509250929050565b600080600060608486031215613c2857600080fd5b6000613c3686828701613a92565b9350506020613c4786828701613a92565b9250506040613c5886828701613b84565b9150509250925092565b60008060008060808587031215613c7857600080fd5b6000613c8687828801613a92565b9450506020613c9787828801613a92565b9350506040613ca887828801613b84565b925050606085013567ffffffffffffffff811115613cc557600080fd5b613cd187828801613b30565b91505092959194509250565b60008060408385031215613cf057600080fd5b6000613cfe85828601613a92565b9250506020613d0f85828601613af1565b9150509250929050565b60008060408385031215613d2c57600080fd5b6000613d3a85828601613a92565b9250506020613d4b85828601613b84565b9150509250929050565b600080600060608486031215613d6a57600080fd5b6000613d7886828701613a92565b9350506020613d8986828701613b84565b925050604084013567ffffffffffffffff811115613da657600080fd5b613db286828701613b30565b9150509250925092565b600080600060408486031215613dd157600080fd5b600084013567ffffffffffffffff811115613deb57600080fd5b613df786828701613aa7565b93509350506020613e0a86828701613b99565b9150509250925092565b600060208284031215613e2657600080fd5b6000613e3484828501613af1565b91505092915050565b600060208284031215613e4f57600080fd5b6000613e5d84828501613b06565b91505092915050565b600060208284031215613e7857600080fd5b6000613e8684828501613b1b565b91505092915050565b600060208284031215613ea157600080fd5b600082013567ffffffffffffffff811115613ebb57600080fd5b613ec784828501613b5a565b91505092915050565b600060208284031215613ee257600080fd5b6000613ef084828501613b84565b91505092915050565b600060208284031215613f0b57600080fd5b6000613f1984828501613b99565b91505092915050565b613f2b81614ec4565b82525050565b613f3a81614ed6565b82525050565b6000613f4b82614d38565b613f558185614d4e565b9350613f65818560208601614f54565b613f6e81615119565b840191505092915050565b6000613f8482614d43565b613f8e8185614d5f565b9350613f9e818560208601614f54565b613fa781615119565b840191505092915050565b6000613fbd82614d43565b613fc78185614d70565b9350613fd7818560208601614f54565b80840191505092915050565b60008154613ff081614fb1565b613ffa8186614d70565b94506001821660008114614015576001811461402657614059565b60ff19831686528186019350614059565b61402f85614d23565b60005b8381101561405157815481890152600182019150602081019050614032565b838801955050505b50505092915050565b600061406f601e83614d5f565b91507f74686520706c616e6b746f6e204e4654732061726520736f6c64206f757400006000830152602082019050919050565b60006140af602b83614d5f565b91507f455243373231456e756d657261626c653a206f776e657220696e646578206f7560008301527f74206f6620626f756e64730000000000000000000000000000000000000000006020830152604082019050919050565b6000614115603283614d5f565b91507f4552433732313a207472616e7366657220746f206e6f6e20455243373231526560008301527f63656976657220696d706c656d656e74657200000000000000000000000000006020830152604082019050919050565b600061417b602683614d5f565b91507f4f776e61626c653a206e6577206f776e657220697320746865207a65726f206160008301527f64647265737300000000000000000000000000000000000000000000000000006020830152604082019050919050565b60006141e1602083614d5f565b91507f507572636861736520776f756c6420657863656564206d617820746f6b656e736000830152602082019050919050565b6000614221602583614d5f565b91507f4552433732313a207472616e736665722066726f6d20696e636f72726563742060008301527f6f776e65720000000000000000000000000000000000000000000000000000006020830152604082019050919050565b6000614287601c83614d5f565b91507f4552433732313a20746f6b656e20616c7265616479206d696e746564000000006000830152602082019050919050565b60006142c7601a83614d5f565b91507f746865207365616c204e4654732061726520736f6c64206f75740000000000006000830152602082019050919050565b6000614307602483614d5f565b91507f4552433732313a207472616e7366657220746f20746865207a65726f2061646460008301527f72657373000000000000000000000000000000000000000000000000000000006020830152604082019050919050565b600061436d601983614d5f565b91507f4552433732313a20617070726f766520746f2063616c6c6572000000000000006000830152602082019050919050565b60006143ad601f83614d5f565b91507f45746865722076616c75652073656e74206973206e6f7420636f7272656374006000830152602082019050919050565b60006143ed602c83614d5f565b91507f4552433732313a206f70657261746f7220717565727920666f72206e6f6e657860008301527f697374656e7420746f6b656e00000000000000000000000000000000000000006020830152604082019050919050565b6000614453603883614d5f565b91507f4552433732313a20617070726f76652063616c6c6572206973206e6f74206f7760008301527f6e6572206e6f7220617070726f76656420666f7220616c6c00000000000000006020830152604082019050919050565b60006144b9602a83614d5f565b91507f4552433732313a2062616c616e636520717565727920666f7220746865207a6560008301527f726f2061646472657373000000000000000000000000000000000000000000006020830152604082019050919050565b600061451f602983614d5f565b91507f4552433732313a206f776e657220717565727920666f72206e6f6e657869737460008301527f656e7420746f6b656e00000000000000000000000000000000000000000000006020830152604082019050919050565b6000614585602083614d5f565b91507f4552433732313a206d696e7420746f20746865207a65726f20616464726573736000830152602082019050919050565b60006145c5601b83614d5f565b91507f746865207768616c65204e4654732061726520736f6c64206f757400000000006000830152602082019050919050565b6000614605602c83614d5f565b91507f4552433732313a20617070726f76656420717565727920666f72206e6f6e657860008301527f697374656e7420746f6b656e00000000000000000000000000000000000000006020830152604082019050919050565b600061466b602083614d5f565b91507f4f776e61626c653a2063616c6c6572206973206e6f7420746865206f776e65726000830152602082019050919050565b60006146ab602183614d5f565b91507f4552433732313a20617070726f76616c20746f2063757272656e74206f776e6560008301527f72000000000000000000000000000000000000000000000000000000000000006020830152604082019050919050565b6000614711602283614d5f565b91507f4578636565646564206d617820617661696c61626c6520746f2070757263686160008301527f73650000000000000000000000000000000000000000000000000000000000006020830152604082019050919050565b6000614777603183614d5f565b91507f4552433732313a207472616e736665722063616c6c6572206973206e6f74206f60008301527f776e6572206e6f7220617070726f7665640000000000000000000000000000006020830152604082019050919050565b60006147dd602c83614d5f565b91507f455243373231456e756d657261626c653a20676c6f62616c20696e646578206f60008301527f7574206f6620626f756e647300000000000000000000000000000000000000006020830152604082019050919050565b6000614843601883614d5f565b91507f416c6c6f77206c697374206973206e6f742061637469766500000000000000006000830152602082019050919050565b61487f81614f2e565b82525050565b61488e81614f38565b82525050565b60006148a08285613fe3565b91506148ac8284613fb2565b91508190509392505050565b60006020820190506148cd6000830184613f22565b92915050565b60006080820190506148e86000830187613f22565b6148f56020830186613f22565b6149026040830185614876565b81810360608301526149148184613f40565b905095945050505050565b60006020820190506149346000830184613f31565b92915050565b600060208201905081810360008301526149548184613f79565b905092915050565b6000602082019050818103600083015261497581614062565b9050919050565b60006020820190508181036000830152614995816140a2565b9050919050565b600060208201905081810360008301526149b581614108565b9050919050565b600060208201905081810360008301526149d58161416e565b9050919050565b600060208201905081810360008301526149f5816141d4565b9050919050565b60006020820190508181036000830152614a1581614214565b9050919050565b60006020820190508181036000830152614a358161427a565b9050919050565b60006020820190508181036000830152614a55816142ba565b9050919050565b60006020820190508181036000830152614a75816142fa565b9050919050565b60006020820190508181036000830152614a9581614360565b9050919050565b60006020820190508181036000830152614ab5816143a0565b9050919050565b60006020820190508181036000830152614ad5816143e0565b9050919050565b60006020820190508181036000830152614af581614446565b9050919050565b60006020820190508181036000830152614b15816144ac565b9050919050565b60006020820190508181036000830152614b3581614512565b9050919050565b60006020820190508181036000830152614b5581614578565b9050919050565b60006020820190508181036000830152614b75816145b8565b9050919050565b60006020820190508181036000830152614b95816145f8565b9050919050565b60006020820190508181036000830152614bb58161465e565b9050919050565b60006020820190508181036000830152614bd58161469e565b9050919050565b60006020820190508181036000830152614bf581614704565b9050919050565b60006020820190508181036000830152614c158161476a565b9050919050565b60006020820190508181036000830152614c35816147d0565b9050919050565b60006020820190508181036000830152614c5581614836565b9050919050565b6000602082019050614c716000830184614876565b92915050565b6000602082019050614c8c6000830184614885565b92915050565b6000604051905081810181811067ffffffffffffffff82111715614cb957614cb86150ea565b5b8060405250919050565b600067ffffffffffffffff821115614cde57614cdd6150ea565b5b601f19601f8301169050602081019050919050565b600067ffffffffffffffff821115614d0e57614d0d6150ea565b5b601f19601f8301169050602081019050919050565b60008190508160005260206000209050919050565b600081519050919050565b600081519050919050565b600082825260208201905092915050565b600082825260208201905092915050565b600081905092915050565b6000614d8682614f2e565b9150614d9183614f2e565b9250827fffffffffffffffffffffffffffffffffffffffffffffffffffffffffffffffff03821115614dc657614dc561505d565b5b828201905092915050565b6000614ddc82614f2e565b9150614de783614f2e565b925082614df757614df661508c565b5b828204905092915050565b6000614e0d82614f2e565b9150614e1883614f2e565b9250817fffffffffffffffffffffffffffffffffffffffffffffffffffffffffffffffff0483118215151615614e5157614e5061505d565b5b828202905092915050565b6000614e6782614f2e565b9150614e7283614f2e565b925082821015614e8557614e8461505d565b5b828203905092915050565b6000614e9b82614f38565b9150614ea683614f38565b925082821015614eb957614eb861505d565b5b828203905092915050565b6000614ecf82614f0e565b9050919050565b60008115159050919050565b60007fffffffff0000000000000000000000000000000000000000000000000000000082169050919050565b600073ffffffffffffffffffffffffffffffffffffffff82169050919050565b6000819050919050565b600060ff82169050919050565b82818337600083830152505050565b60005b83811015614f72578082015181840152602081019050614f57565b83811115614f81576000848401525b50505050565b6000614f9282614f2e565b91506000821415614fa657614fa561505d565b5b600182039050919050565b60006002820490506001821680614fc957607f821691505b60208210811415614fdd57614fdc6150bb565b5b50919050565b6000614fee82614f2e565b91507fffffffffffffffffffffffffffffffffffffffffffffffffffffffffffffffff8214156150215761502061505d565b5b600182019050919050565b600061503782614f2e565b915061504283614f2e565b9250826150525761505161508c565b5b828206905092915050565b7f4e487b7100000000000000000000000000000000000000000000000000000000600052601160045260246000fd5b7f4e487b7100000000000000000000000000000000000000000000000000000000600052601260045260246000fd5b7f4e487b7100000000000000000000000000000000000000000000000000000000600052602260045260246000fd5b7f4e487b7100000000000000000000000000000000000000000000000000000000600052604160045260246000fd5b6000601f19601f8301169050919050565b61513381614ec4565b811461513e57600080fd5b50565b61514a81614ed6565b811461515557600080fd5b50565b61516181614ee2565b811461516c57600080fd5b50565b61517881614f2e565b811461518357600080fd5b50565b61518f81614f38565b811461519a57600080fd5b5056fea2646970667358221220a85f2cf8f1edea79a6fa8ca10d2245cf7c5dba771eaaa9c3c9b1e0198fc9738464736f6c63430008000033",
  "linkReferences": {},
  "deployedLinkReferences": {}
}